:020000040800F2
:1000000000A00020694F0008554D0008634D00080E
:10001000694D00086F4D0008754D00080000000094
:100020000000000000000000000000007B4D000800
:10003000894D000800000000974D0008A54D0008FC
:10004000B94F0008B94F0008B94F0008B94F000870
:10005000B94F0008B94F0008B94F0008B94F000860
:10006000B94F0008B94F0008B94F0008B94F000850
:10007000B94F0008B94F0008B94F0008B94F000840
:10008000B94F0008B94F0008B94F0008B94F000830
:10009000B94F0008B94F0008B94F0008B94F000820
:1000A000B94F0008B94F0008B94F0008B94F000810
:1000B000B14D0008B94F0008B94F0008B94F00080A
:1000C000B94F0008B94F0008B94F0008B94F0008F0
:1000D000B94F0008B94F0008B94F0008B94F0008E0
:1000E000B94F0008B94F0008B94F0008B94F0008D0
:1000F000B94F0008B94F0008B94F0008B94F0008C0
:10010000000000000000000000000000B94F0008DF
:10011000B94F0008B94F0008B94F0008B94F00089F
:10012000B94F0008B94F0008B94F0008B94F00088F
:10013000B94F0008B94F000800000000000000009F
:10014000B94F0008B94F0008B94F0008000000007F
:10015000000000000000000000000000000000009F
:100160000000000000000000B94F0008B94F00086F
:10017000B94F00080000000000000000000000006F
:0801800000000000B94F000867
:1001900010B5054C237833B9044B13B10448AFF3C1
:1001A00000800123237010BDEC010020000000003E
:1001B000C0F2000808B5034B1BB103490348AFF375
:1001C000008008BD00000000F0010020C0F200081F
:1001D000034613F8012B002AFBD1181A0138704787
:1001E00001F0FF01102A2BDB10F0070F08D010F8E8
:1001F000013B013A8B422DD010F0070F42B3F6D1EC
:10020000F0B441EA012141EA014122F007047FF004
:1002100000070023F0E80256083C85EA010586EA5B
:10022000010685FA47F5A3FA87F586FA47F6A5FA97
:1002300087F68EB9EED1F0BC01F0FF0102F00702A3
:1002400032B110F8013B013A83EA010313B1F8D14E
:100250000020704701387047002D06BF354603382F
:10026000073815F0010F07D1013015F4807F02BF68
:10027000013015F4C03F0130F0BC0138704700BFB9
:1002800081F0004102E000BF83F0004330B54FEA47
:1002900041044FEA430594EA050F08BF90EA020FB4
:1002A0001FBF54EA000C55EA020C7FEA645C7FEA47
:1002B000655C00F0E2804FEA5454D4EB5555B8BF6A
:1002C0006D420CDD2C4480EA020281EA030382EADB
:1002D000000083EA010180EA020281EA0303362D6D
:1002E00088BF30BD11F0004F4FEA01314FF4801C40
:1002F0004CEA113102D0404261EB410113F0004F52
:100300004FEA03334CEA133302D0524263EB430308
:1003100094EA050F00F0A780A4F10104D5F1200EA6
:100320000DDB02FA0EFC22FA05F2801841F1000101
:1003300003FA0EF2801843FA05F359410EE0A5F1D5
:1003400020050EF1200E012A03FA0EFC28BF4CF006
:10035000020C43FA05F3C01851EBE37101F00045BC
:1003600007D54FF0000EDCF1000C7EEB00006EEBC9
:100370000101B1F5801F1BD3B1F5001F0CD3490853
:100380005FEA30004FEA3C0C04F101044FEA4452AA
:1003900012F5800F80F09A80BCF1004F08BF5FEA31
:1003A000500C50F1000041EB045141EA050130BD11
:1003B0005FEA4C0C404141EB0101013C28BFB1F523
:1003C000801FE9D291F0000F04BF01460020B1FA6E
:1003D00081F308BF2033A3F10B03B3F120020CDA41
:1003E0000C3208DD02F1140CC2F10C0201FA0CF01F
:1003F00021FA02F10CE002F11402D8BFC2F1200C84
:1004000001FA02F120FA0CFCDCBF41EA0C01904039
:10041000E41AA2BF01EB0451294330BD6FEA040482
:100420001F3C1CDA0C340EDC04F11404C4F120026D
:1004300020FA04F001FA02F340EA030021FA04F37F
:1004400045EA030130BDC4F10C04C4F1200220FAD6
:1004500002F001FA04F340EA0300294630BD21FA14
:1004600004F0294630BD94F0000F83F4801306BFDA
:1004700081F480110134013D4EE77FEA645C18BFCE
:100480007FEA655C29D094EA050F08BF90EA020F65
:1004900005D054EA000C04BF1946104630BD91EA5D
:1004A000030F1EBF0021002030BD5FEA545C05D160
:1004B0004000494128BF41F0004130BD14F580049F
:1004C0003CBF01F5801130BD01F0004545F0FE4113
:1004D00041F470014FF0000030BD7FEA645C1ABF48
:1004E000194610467FEA655C1CBF0B46024650EA7F
:1004F000013406BF52EA033591EA030F41F40021AB
:1005000030BD00BF90F0000F04BF0021704730B530
:100510004FF4806404F132044FF000054FF0000105
:1005200050E700BF90F0000F04BF0021704730B5C6
:100530004FF4806404F1320410F0004548BF40429B
:100540004FF000013EE700BF42004FEAE2014FEAF0
:1005500031014FEA02701FBF12F07F4393F07F4FCB
:1005600081F06051704732F07F4208BF704793F0CE
:100570007F4F04BF41F40021704730B54FF46074E1
:1005800001F0004521F000411CE700BF50EA0102E4
:1005900008BF704730B54FF000050AE050EA01028D
:1005A00008BF704730B511F0004502D5404261EBFD
:1005B00041014FF4806404F132045FEA915C3FF43E
:1005C000D8AE4FF003025FEADC0C18BF03325FEADB
:1005D000DC0C18BF033202EBDC02C2F1200300FA8C
:1005E00003FC20FA02F001FA03FE40EA0E0021FAB1
:1005F00002F11444BDE600BF70B54FF0FF0C4CF49F
:10060000E06C1CEA11541DBF1CEA135594EA0C0F50
:1006100095EA0C0F00F0DEF82C4481EA030621EA8B
:100620004C5123EA4C5350EA013518BF52EA0335C6
:1006300041F4801143F4801338D0A0FB02CE4FF078
:100640000005E1FB02E506F00042E0FB03E54FF0A8
:100650000006E1FB03569CF0000F18BF4EF0010EA0
:10066000A4F1FF04B6F5007F64F5407404D25FEA9C
:100670004E0E6D4146EB060642EAC62141EA55514F
:100680004FEAC52040EA5E504FEACE2EB4F1FD0C91
:1006900088BFBCF5E06F1ED8BEF1004F08BF5FEA0F
:1006A000500E50F1000041EB045170BD06F00046C1
:1006B00046EA010140EA020081EA0301B4EB5C046E
:1006C000C2BFD4EB0C0541EA045170BD41F4801166
:1006D0004FF0000E013C00F3AB8014F1360FDEBF8B
:1006E000002001F0004170BDC4F10004203C35DA67
:1006F0000C341BDC04F11404C4F1200500FA05F3EA
:1007000020FA04F001FA05F240EA020001F000428A
:1007100021F0004110EBD37021FA04F642EB060100
:100720005EEA430E08BF20EAD37070BDC4F10C042A
:10073000C4F1200500FA04F320FA05F001FA04F2EE
:1007400040EA020001F0004110EBD37041F10001DA
:100750005EEA430E08BF20EAD37070BDC4F12005E5
:1007600000FA05F24EEA020E20FA04F301FA05F24D
:1007700043EA020321FA04F001F0004121FA04F2F5
:1007800020EA020000EBD3705EEA430E08BF20EAC5
:10079000D37070BD94F0000F0FD101F000464000FF
:1007A00041EB010111F4801F08BF013CF7D041EA81
:1007B000060195F0000F18BF704703F00046520085
:1007C00043EB030313F4801F08BF013DF7D043EA56
:1007D0000603704794EA0C0F0CEA135518BF95EA0C
:1007E0000C0F0CD050EA410618BF52EA4306D1D193
:1007F00081EA030101F000414FF0000070BD50EAB2
:10080000410606BF1046194652EA430619D094EA3B
:100810000C0F02D150EA013613D195EA0C0F05D125
:1008200052EA03361CBF104619460AD181EA030179
:1008300001F0004141F0FE4141F470014FF0000031
:1008400070BD41F0FE4141F4780170BD70B54FF0CC
:10085000FF0C4CF4E06C1CEA11541DBF1CEA13554C
:1008600094EA0C0F95EA0C0F00F0A7F8A4EB05042E
:1008700081EA030E52EA03354FEA013100F0888025
:100880004FEA03334FF0805545EA131343EA1263EE
:100890004FEA022245EA111545EA10654FEA0026A3
:1008A0000EF000419D4208BF964244F1FD0404F55C
:1008B000407402D25B084FEA3202B61A65EB0305B8
:1008C0005B084FEA32024FF480104FF4002CB6EB75
:1008D000020E75EB030E22BFB61A754640EA0C00F5
:1008E0005B084FEA3202B6EB020E75EB030E22BF35
:1008F000B61A754640EA5C005B084FEA3202B6EB76
:10090000020E75EB030E22BFB61A754640EA9C0034
:100910005B084FEA3202B6EB020E75EB030E22BF04
:10092000B61A754640EADC0055EA060E18D04FEAC2
:10093000051545EA16754FEA06164FEAC30343EA62
:1009400052734FEAC2025FEA1C1CC0D111F4801F2F
:100950000BD141EA00014FF000004FF0004CB6E728
:1009600011F4801F04BF01430020B4F1FD0C88BFC7
:10097000BCF5E06F3FF6AFAEB5EB030C04BFB6EBD2
:10098000020C5FEA500C50F1000041EB045170BDC5
:100990000EF0004E4EEA113114EB5C04C2BFD4EBF2
:1009A0000C0541EA045170BD41F480114FF0000E76
:1009B000013C90E645EA060E8DE60CEA135594EAF2
:1009C0000C0F08BF95EA0C0F3FF43BAF94EA0C0FF5
:1009D0000AD150EA01347FF434AF95EA0C0F7FF46A
:1009E00025AF104619462CE795EA0C0F06D152EABE
:1009F00003353FF4FDAE1046194622E750EA4106A2
:100A000018BF52EA43067FF4C5AE50EA41047FF4B2
:100A10000DAF52EA43057FF4EBAE12E74FF0FF3C17
:100A200006E000BF4FF0010C02E000BF4FF0010CE8
:100A30004DF804CD4FEA410C7FEA6C5C4FEA430C61
:100A400018BF7FEA6C5C1BD001B050EA410C0CBFB0
:100A500052EA430C91EA030F02BF90EA020F002012
:100A6000704710F1000F91EA030F58BF994208BF79
:100A700090422CBFD8176FEAE37040F00100704736
:100A80004FEA410C7FEA6C5C02D150EA013C07D18D
:100A90004FEA430C7FEA6C5CD6D152EA033CD3D0D8
:100AA0005DF8040B704700BF8446104662468C46D2
:100AB0001946634600E000BF01B5FFF7B7FF002805
:100AC00048BF10F1000F01BD4DF808EDFFF7F4FF2E
:100AD0000CBF012000205DF808FB00BF4DF808EDB9
:100AE000FFF7EAFF34BF012000205DF808FB00BFDC
:100AF0004DF808EDFFF7E0FF94BF012000205DF8FE
:100B000008FB00BF4DF808EDFFF7CEFF94BF0120B2
:100B100000205DF808FB00BF4DF808EDFFF7C4FFAB
:100B200034BF012000205DF808FB00BF4FEA410CF4
:100B30007FEA6C5C02D150EA013C0AD14FEA430CD7
:100B40007FEA6C5C02D152EA033C02D14FF0000014
:100B500070474FF0010070474FEA410212F5001252
:100B600015D211D56FF47873B3EB625212D94FEAF4
:100B7000C12343F0004343EA505311F0004F23FADE
:100B800002F018BF404270474FF00000704750EA33
:100B9000013005D111F0004008BF6FF000407047F0
:100BA0004FF00000704700BF4A0011D212F500124A
:100BB00011D20DD56FF47873B3EB62520ED44FEAB5
:100BC000C12343F0004343EA505323FA02F0704735
:100BD0004FF00000704750EA013002D14FF0FF3073
:100BE00070474FF0000070474FEA4102B2F1E04316
:100BF00024BFB3F5001CDCF1FE5C0DD901F0004C04
:100C00004FEAC0024CEA5070B2F1004F40EB830053
:100C100008BF20F00100704711F0804F21D113F17F
:100C20003872BCBF01F00040704741F480114FEAB8
:100C30005252C2F11802C2F1200C10FA0CF320FA41
:100C400002F018BF40F001004FEAC1234FEAD3235E
:100C500003FA0CFC40EA0C0023FA02F34FEA4303C8
:100C6000CCE77FEA625307D150EA01331EBF4FF051
:100C7000FE4040F44000704701F0004040F0FE406C
:100C800040F40000704700BF80B582B000AF7860CC
:100C90007B681B7F012B40F0B4805C4B1B78002BE2
:100CA0001AD100215A4808F0D9FA0346594A13606C
:100CB000564B01221A70564B1B681A6A544B1B681C
:100CC00022F00A021A62524B1B681A6A504B1B68C8
:100CD00042F002021A6294E04C4B1B78012B40F068
:100CE000908000214A4808F0B9FA03464A4A136046
:100CF000474B1B6800225A62474B1A68454B1B68DA
:100D00009A420DD9444B1B689AB2424B1B689BB266
:100D1000D31A9BB203F5FA739AB2404B1A800CE0D7
:100D20003D4B1B689AB23B4B1B689BB2D31A9BB2DC
:100D300003F2F3139AB2394B1A80354B1B681A6AC7
:100D4000334B1B6822F00A021A62314B1A68304B8F
:100D50001B68126A1A622D4B00221A702F4B1B88D7
:100D600040F6B832934206D92D4B00221A702D4B13
:100D700000221A8005E02A4B1B780133DAB2284B97
:100D80001A70274B1B78012B03D1244B1A88264B52
:100D90001A80234B1B78022B03D1204B1A88234B3C
:100DA0001A801F4B1B78032B03D11C4B1A88204B36
:100DB0001A801B4B1B78042B03D1184B1A881D4B30
:100DC0001A80174B1B78052B03D1144B1A881A4B2A
:100DD0001A80134B1B78062B03D1104B1A88174B24
:100DE0001A800F4B1B78072B03D10C4B1A88144B1E
:100DF0001A800B4B1B78082B03D1084B1A88114B18
:100E00001A8000BF0837BD4680BD00BF1202002017
:100E100054070020080200200C02002010020020CD
:100E200096090020A4090020A00900209C090020A8
:100E3000A6090020980900209E090020A209002090
:100E40009A0900209409002080B400AF034B1B884E
:100E50001846BD465DF8047B704700BFA00900201E
:100E600080B400AF034B1B881846BD465DF8047B79
:100E7000704700BF9C09002080B400AF034B1B8863
:100E80001846BD465DF8047B704700BFA6090020E8
:100E900080B400AF034B1B881846BD465DF8047B49
:100EA000704700BF9809002080B400AF034B1B8837
:100EB0001846BD465DF8047B704700BF9E090020C0
:100EC00080B400AF034B1B881846BD465DF8047B19
:100ED000704700BF9A09002080B400AF034B1B8805
:100EE0001846BD465DF8047B704700BF940900209A
:100EF00080B400AF2C4B81221A602B4B00225A6029
:100F0000294B00229A60284B0022DA60264B0022EF
:100F10005A61254B46F668029A61234B46F66802F1
:100F2000DA61214B41F211121A62204B81221A60C0
:100F30001E4B00225A601D4B00229A601B4B002260
:100F4000DA601A4B00225A61184B68229A61174BDB
:100F500001221A62164B81221A60154B00225A6038
:100F6000134B00229A60124B0022DA60104B0022D1
:100F70005A610F4B68229A610D4B01221A620B4B8A
:100F80004FF47A725A630A4B4FF47A725A63064BE3
:100F90004FF47A725A63044B4FF47A729A6300BF2B
:100FA000BD465DF8047B70470008004000440140E6
:100FB0000048014080B483B000AF7860044A7B6889
:100FC0001A607B6818460C37BD465DF8047B704795
:100FD000E0F2000880B582B000AF78607868FFF773
:100FE000E9FF1421786809F039FB7B681846083757
:100FF000BD4680BD80B485B000AFF86087ED020AC1
:10100000C7ED010A87ED001A094AFB681A60FB6800
:10101000BA689A60FB687A68DA60FB683A681A61B5
:10102000FB6818461437BD465DF8047B704700BF67
:10103000E0F2000880B483B000AF78600B467B809C
:101040007B684FF000025A60B7F9023040F2E45278
:1010500093420BDDB7F90230A3F2E45307EE903A66
:10106000F8EEE77A7B68C3ED017A10E0B7F9023059
:1010700040F2D35293420ADCB7F90230A3F2D453C0
:1010800007EE903AF8EEE77A7B68C3ED017A7B6869
:101090005B6807EE903AB0EE670A0C37BD465DF824
:1010A000047B704780B483B000AF786087ED000A9E
:1010B0007B683A689A6000BF0C37BD465DF8047BD8
:1010C000704780B483B000AF78607B689B6807EEA0
:1010D000903AB0EE670A0C37BD465DF8047B704766
:1010E00080B483B000AF786087ED000A7B683A680F
:1010F000DA6000BF0C37BD465DF8047B704780B4F2
:1011000083B000AF78607B68DB6807EE903AB0EEA2
:10111000670A0C37BD465DF8047B704780B483B026
:1011200000AF786087ED000A7B683A681A6100BFFB
:101130000C37BD465DF8047B704780B483B000AFC8
:1011400078607B681B6907EE903AB0EE670A0C374F
:10115000BD465DF8047B704780B582B000AF0346A2
:10116000FB71254AFB79137003F082FF0246234B83
:101170001B689A423BD903F07BFF0346FA331F4AB0
:1011800013601D4B1B78002B0AD01D4B1B781A4691
:10119000194B1B7803339A4202DD194B00221A7057
:1011A000174B1A78144B1B789A4211D2154B1B78A7
:1011B000002B0DD1104B1B78002B09D001220221EE
:1011C0004FF0904005F09CFA0E4B01221A700EE091
:1011D000002202214FF0904005F092FA084B1B7854
:1011E0000133DAB2064B1A70064B00221A7000BFA8
:1011F0000837BD4680BD00BFBC090020B4090020EF
:10120000BD090020B009002080B582B000AF0346C0
:10121000FB71244AFB79137003F02AFF0246224B2C
:101220001B689A4239D903F023FF0346FA331E4A5A
:1012300013601C4B1B78002B0AD01C4B1B781A46E2
:10124000184B1B7803339A4202DD184B00221A70A8
:10125000164B1A78134B1B789A4210D2144B1B78FA
:10126000002B0CD10F4B1B78002B08D00122102132
:10127000104805F045FA0E4B01221A700DE00022CD
:1012800010210C4805F03CFA084B1B780133DAB208
:10129000064B1A70064B00221A7000BF0837BD4675
:1012A00080BD00BF00000020B8090020AB0900206D
:1012B000AA0900200004004880B582B000AF0346B0
:1012C0000A46FB711346BB80274AFB791370274AF5
:1012D000BB88138003F0CCFE0246254B1B689A4264
:1012E0003DD903F0C5FE0346204A12881344204A24
:1012F00013601D4B1B78002B0AD01E4B1B781A461F
:10130000194B1B7803339A4202DD1A4B00221A70E4
:10131000184B1A78144B1B789A4211D2164B1B7833
:10132000002B0DD1104B1B78002B09D001224FF45C
:101330000041124805F0E4F90F4B01221A700EE04B
:1013400000224FF400410D4805F0DAF9094B1B78F3
:101350000133DAB2074B1A70074B00221A7000BF34
:101360000837BD4680BD00BFA9090020AE09002096
:10137000C0090020A8090020AC090020000800488E
:10138000B0B52DED028B82B000AF87ED010A03F0FE
:1013900077F8B0EE408A03F073F8F0EE407A28EE6A
:1013A000278A03F07BF8F0EE408A03F077F8F0EE3E
:1013B000407A68EEA77A38EE278A03F07DF8F0EEDF
:1013C000408A03F079F8F0EE407A68EEA77A78EE7A
:1013D000277A17EE900AFFF7B7F802460B4643EC60
:1013E000102B09F051FA53EC102B10461946FFF759
:1013F000B3FB0346CA4A136003F050F8F0EE407A9C
:10140000FDEEE77A17EE903A83EAE372A2EBE3721D
:10141000C34B1B689A4225DA03F040F8B0EE407ADD
:10142000BF4B1B6807EE903AF8EEE77AC7EE276AE3
:1014300016EE900AFFF788F802460B4643EC102B95
:1014400009F0E8F951EC100BB1A3D3E90023FFF741
:10145000D3F802460B4610461946FFF7C5FB034674
:10146000B04A136003F00CF8F0EE407AFDEEE77A34
:1014700017EE903A83EAE372A2EBE372A84B1B6883
:101480009A4225DA02F0FCFFB0EE407AA44B1B68CA
:1014900007EE903AF8EEE77AC7EE276A16EE900A62
:1014A000FFF752F802460B4643EC102B09F0B2F955
:1014B00051EC100B96A3D3E90023FFF79DF80246E9
:1014C0000B4610461946FFF78FFB0346964A1360FA
:1014D00002F0ACFFB0EE407AD7ED017A27EE277A22
:1014E000924BD3ED007A77EE277A904BC3ED007ADA
:1014F00002F0AAFFB0EE407AD7ED017AF1EE677AFA
:1015000027EE277A8A4BD3ED007A77EE277A884B3D
:10151000C3ED007A02F0A6FFB0EE407AD7ED017A73
:1015200027EE277A834BD3ED007A77EE277A814B2B
:10153000C3ED007A7D4B1B681846FFF705F804469B
:101540000D4602F08FFFB0EE407AD7ED017A67EEDC
:10155000277A17EE900AFEF7F7FF6FA3D3E900236F
:10156000FFF74AF802460B4643EC172BB0EE470A4A
:10157000F0EE670A09F078F853EC102B2046294664
:10158000FFF73AF802460B4614461D46684B1B68A7
:101590001846FEF7D9FF02460B4620462946FEF7BD
:1015A00075FE02460B4610461946FFF71DFB034623
:1015B0005F4A13605E4B1B681846FEF7C5FF044682
:1015C0000D4602F04FFFB0EE407AD7ED017A67EE9C
:1015D000277A17EE900AFEF7B7FF4FA3D3E900234F
:1015E000FFF70AF802460B4643EC172BB0EE470A0A
:1015F000F0EE670A09F038F853EC102B2046294624
:10160000FEF7FAFF02460B4614461D46474B1B6881
:101610001846FEF799FF22462B46FEF735FE024696
:101620000B4610461946FFF7DFFA03463F4A1360A0
:101630009FED417A3D4BD3ED007A27EE277ADFED1F
:101640003F6A384BD3ED007A66EEA77A77EE277AB9
:10165000364BC3ED007A9FED387A354BD3ED007AE7
:1016600027EE277ADFED356A2F4BD3ED007A66EE51
:10167000A77A77EE277A2E4BC3ED007A2B4B1B68A7
:101680002F4A13602A4B1B682E4A136002F0CEFECD
:10169000B0EE407AD7ED017A27EE277A2A4BD3EDC8
:1016A000007A77EE277A9FED247A27EE877ADFEDAE
:1016B000236A1C4BD3ED007A66EEA77A77EE277A81
:1016C000214BC3ED007A02F0BFFEB0EE407AD7EDB9
:1016D000017AF1EE677A27EE277A1C4BD3ED007A78
:1016E00077EE277A9FED147A27EE877ADFED136A7B
:1016F0000D4BD3ED007A66EEA77A77EE277A134B7F
:10170000C3ED007A00BF0837BD46BDEC028BB0BD0B
:10171000D9CEF753E3A54C40399D52A246DF913F05
:10172000D0090020D8090020C8090020CC090020D9
:10173000C4090020D409002077BE7F3F6F12833A8E
:101740001802002014020020200200201C020020A9
:1017500080B400AF044B1B6807EE903AB0EE670A06
:10176000BD465DF8047B70471802002080B400AFCE
:10177000044B1B6807EE903AB0EE670ABD465DF871
:10178000047B70471402002080B400AF044B1B6838
:1017900007EE903AB0EE670ABD465DF8047B7047ED
:1017A0002002002080B400AF044B1B6807EE903A83
:1017B000B0EE670ABD465DF8047B70471C0200204E
:1017C00080B582B000AF0346FB80FFF73DFB0346C8
:1017D0001A4640F205439A420AD8FFF759FB0346DE
:1017E0001A4640F205439A4202D81E4B37221A701D
:1017F0001C4B1B78372B16D1FFF726FB03461A46E6
:1018000040F205439A420ED8FFF742FB0346B3F578
:10181000BA6F08D9FB88DBB21833DAB2124B1A70F0
:10182000104B01221A700F4B1B78012B15D1FFF7BB
:101830000BFB03461A4640F205439A420DD8FFF7C8
:1018400027FB03461A4640F29E739A4205D9054B80
:1018500000221A70044B00221A7000BF0837BD46E0
:1018600080BD00BF240200202502002080B400AF0C
:10187000034B1B781846BD465DF8047B704700BFDC
:101880002502002080B400AF034B1B781846BD46EC
:101890005DF8047B704700BF2402002080B582B051
:1018A00000AF87ED010A97ED010A08F031FFF0EE75
:1018B000407AB0EE670A0837BD4680BD80B582B079
:1018C00000AF87ED010A97ED010A08F061FFF0EE25
:1018D000407AB0EE670A0837BD4680BD80B483B059
:1018E00000AF7860044A7B681A607B6818460C3742
:1018F000BD465DF8047B7047F0F2000880B582B009
:1019000000AF78607868FFF7E9FF6021786808F039
:10191000A5FE7B6818460837BD4680BD0000000064
:1019200080B584B000AFF86087ED020AC7ED010A08
:10193000794AFB681A60FB68BA685A60FB687A6883
:101940009A60FB68D3ED017A9FED747A27EE877A6F
:10195000FB68D3ED027A67EE277AFB68C3ED037A62
:10196000FB68D3ED037AB0EE670AFFF7A7FFF0EE4E
:10197000407AFB68C3ED047AFB68D3ED037AB0EEDE
:10198000670AFFF78BFFF0EE407AFB68C3ED057A3C
:10199000FB681B691846FEF7D7FD5DA3D3E900235A
:1019A000FEF754FF02460B4610461946FFF71CF996
:1019B0000246FB689A61FB68D3ED057AB7EE007AC0
:1019C00077EE677AB6EE007A67EE877AFB68C3ED4A
:1019D000077AFB68D3ED057AB7EE007A77EE677A7F
:1019E000FB68C3ED087AFB68D3ED057AB7EE007AA1
:1019F00077EE677AB6EE007A67EE877AFB68C3ED1A
:101A0000097AFB68D3ED067AB7EE007A77EE877A2B
:101A1000FB68C3ED0A7AFB68D3ED057AB8EE007A6D
:101A200067EE877AFB68C3ED0B7AFB68D3ED067A25
:101A3000B7EE007A77EE677AFB68C3ED0C7AFB6845
:101A4000D3ED076AFB6893ED0A7AC6EE877AFB68E6
:101A5000C3ED0D7AFB68D3ED086AFB6893ED0A7A53
:101A6000C6EE877AFB68C3ED0E7AFB68D3ED096A90
:101A7000FB6893ED0A7AC6EE877AFB68C3ED0F7AAE
:101A8000FB68D3ED0B6AFB6893ED0A7AC6EE877AA2
:101A9000FB68C3ED107AFB68D3ED0C6AFB6893ED2D
:101AA0000A7AC6EE877AFB68C3ED117AFB684FF0BD
:101AB00000029A64FB684FF00002DA64FB68D3ED21
:101AC000017A9FED167A27EE877AF7EE006AC6EE66
:101AD000877AFB68C3ED167AFB68D3ED026AFB6870
:101AE00093ED167AFB68D3ED027A37EE277AC6EECD
:101AF000877AFB68C3ED177AFB684FF000025A65DE
:101B0000FB6818461037BD4680BD00BFAFF30080AC
:101B10001B0DE02D90A0F63FF0F20008DA0FC9404F
:101B200080B483B000AF786087ED000A7B6893EDE6
:101B30000D7AD7ED007A27EE277A7B68D3ED127AFB
:101B400077EE277A7B68C3ED147A7B6893ED0E7A83
:101B5000D7ED007A27EE277A7B68D3ED106A7B6891
:101B6000D3ED147A66EEA77A37EE677A7B68D3ED09
:101B7000137A77EE277A7B68C3ED127A7B6893ED50
:101B80000F7AD7ED007A27EE277A7B68D3ED116ABA
:101B90007B68D3ED147A66EEA77A77EE677A7B6876
:101BA000C3ED137A7B681B6D07EE903AB0EE670ABF
:101BB0000C37BD465DF8047B704780B483B000AF3E
:101BC000786087ED000A7B6893ED157A7B68D3ED2A
:101BD000176A7B68D3ED157A97ED006A76EE677A1F
:101BE00066EEA77A77EE277A7B68C3ED157A7B6875
:101BF0005B6D07EE903AB0EE670A0C37BD465DF8B4
:101C0000047B70470000000098B52DED028B00AFFB
:101C100003F0D4F901F0BEFC02F09EF801F020FEC2
:101C200001F080FE01F038FF01F0CCFF02F060F817
:101C300001F086FD01F01CFD01F0D0FDC24B5B6997
:101C4000C14A43F080535361012202214FF090407A
:101C500004F056FD0021BD4807F058F8322003F08B
:101C600013FAFFF7F1F803461A4640F2DD339A42C1
:101C700037D9FFF7F5F803461A4640F2DD339A42AA
:101C80002FD9FFF7F9F803461A4640F2DD339A429E
:101C900027D9FFF7FDF803461A4640F2DD339A4292
:101CA0001FD9FFF7D1F803461A4640F2DA739A4279
:101CB00017D8FFF7D5F803461A4640F2DA739A426E
:101CC0000FD8FFF7D9F803461A4640F2DA739A4262
:101CD00007D8FFF7DDF803461A4640F2DA739A4256
:101CE00001D9012300E00023002B06D00420FFF7D8
:101CF00033FA022003F0C8F9B3E7FFF7F9F832200E
:101D000003F0C2F90021924806F07CFF00219148BF
:101D100006F078FF322003F0B7F9FFF795F8034695
:101D20001A4640F2DD339A4237D9FFF799F8034655
:101D30001A4640F2DD339A422FD9FFF79DF8034649
:101D40001A4640F2DD339A4227D9FFF7A1F803463D
:101D50001A4640F2DD339A421FD9FFF775F8034661
:101D60001A4640F2DA739A4217D8FFF779F8034619
:101D70001A4640F2DA739A420FD8FFF77DF803460D
:101D80001A4640F2DA739A4207D8FFF781F8034601
:101D90001A4640F2DA739A4201D9012300E0002387
:101DA000002B0FD06C4B4FF47A721A806B4B4FF4B0
:101DB0007A721A806A4B4FF47A721A80694B4FF428
:101DC0007A721A800A230122D021674804F088FF22
:101DD0000346002B14BF01230023DBB2002B06D0E7
:101DE0000220FFF7B9F9022003F04EF9EAE74FF4B9
:101DF000FA6003F049F902F04DF9322003F044F99A
:101E000002F0A0F9594BDB68584A43F08073D36065
:101E1000574B00225A60564B1B68554A43F001034A
:101E20001360534B5B68534A1360534B1B78013369
:101E3000DAB2514B1A70504B1B787D2B5CD14F4856
:101E400003F026FB05214D4803F06EFC0346002BF2
:101E50000CBF01230023DBB2002B15D0474803F051
:101E60005DFD03461846FEF74DFB35A3D3E900237D
:101E7000FEF7ECFC02460B4610461946FEF794FEB0
:101E800003469AB23E4B1A803C4803F017FC3D4B88
:101E900093F90030DBB20133DBB25AB2394B1A701E
:101EA000384B93F900301A46354B1988364B23F8D6
:101EB0001210354B1B881A46334B5B881344324A49
:101EC00092881344304AD28813442F4A128913440B
:101ED0002E4A82FB03125210DB17D31A9AB22C4BF4
:101EE0001A80284B93F90030032B02DD254BFF228B
:101EF0001A70214B00221A70FEF7D6FF03461A46CD
:101F000040F2D5639A428CBF01230023DBB2002B41
:101F100003D0204B01221A7055E0FEF7C5FF03469F
:101F20001A4640F2D5639A4236D8FEF7BDFF034603
:101F30001A4640F245539A422ED901232DE000BFA4
:101F40003108AC1C5A64F13F0010024054070020D5
:101F5000D407002014080020020000200400002004
:101F6000060000200800002008070020F0ED00E037
:101F7000001000E0D408002070090020B8060020FE
:101F8000620900200A000020640900206766666676
:101F90006E090020000000200023002B03D0AE4B70
:101FA00002221A700FE0FEF77FFF03461A4640F246
:101FB00045539A4294BF01230023DBB2002B02D089
:101FC000A54B03221A70A54B1B8801339AB2A34B71
:101FD0001A80A24B1B88B3F5FA7F40F062859F4BB5
:101FE00000221A80FEF76CFF03461A4640F2E243D5
:101FF0009A4209D9FEF764FF03461A4640F2DC53C1
:102000009A4201D8012300E00023002B03D0944B17
:1020100001221A702CE0FEF753FF03461A4640F2E5
:10202000DC539A4209D9FEF74BFF03461A4640F2A9
:1020300026739A4201D8012300E00023002B03D02D
:10204000874B02221A7013E0FEF73AFF03461A4646
:1020500040F226739A428CBF01230023DBB2002B8F
:1020600003D07F4B03221A7002E07D4B00221A70CE
:102070007C4B00221A70FEF72FFF03461A4640F2EF
:10208000A4639A428CBF01230023DBB2002B00F033
:102090007582734B1B78002B02D0724B01221A7091
:1020A0006F4B1B78012B40F0E9806B4B1B78012BA9
:1020B0005DD16D4802F06EFB10EE103A1846FEF747
:1020C00043FA61A3D3E90023FEF7E0F802460B468A
:1020D00010461946FEF788FD034600EE103A6248A6
:1020E00002F01CFB604802F055FBF0EE407AB1EEC6
:1020F000047AF4EEC77AF1EE10FACCBF0123002384
:10210000DBB2002B04D0B1EE040A574802F006FB04
:10211000564802F03FFB10EE103A1846FEF714FA4C
:1021200049A3D3E90023FEF7B1F802460B46104657
:102130001946FEF759FD034600EE103A4B4802F0EF
:10214000EDFA4A4802F026FBF0EE407AB0EE087A4B
:10215000F4EEC77AF1EE10FACCBF01230023DBB214
:10216000002B04D0B0EE080A404802F0D7FA3A4BF0
:102170001B78022B40F095843D48FEF7A2FF10EE3D
:10218000103A1846FEF7E0F92FA3D3E90023FEF733
:102190007DF802460B4610461946FEF725FD03461C
:1021A00000EE103A3248FEF77DFF3148FEF789FF16
:1021B000F0EE407AB0EE007AF4EEC77AF1EE10FA63
:1021C000CCBF01230023DBB2002B04D0B0EE000A09
:1021D0002748FEF767FF2748FEF773FF10EE103A17
:1021E0001846FEF7B1F918A3D3E90023FEF74EF81D
:1021F00002460B4610461946FEF7F6FC034600EE73
:10220000103A1C48FEF74EFF1A48FEF75AFF10EE30
:10221000103A1846FEF798F901231C460CA3D3E99F
:102220000023FEF779FC0346002B01D100231C4656
:10223000E3B2002B00F035849FED0F0A0D48FEF746
:1022400031FF00F02EBC00BF7B14AE47E17A843F23
:10225000CDCCCCCCCCCC04400000002072090020B6
:10226000E0080020E10800208C020020BC020020D1
:102270001C0300203003002066662640B84B1B7804
:10228000022B40F0B180B74B1B78012B5DD1B648D3
:1022900002F08FFA10EE103A1846FEF755F9AEA389
:1022A000D3E90023FDF7F2FF02460B46104619461C
:1022B000FEF79AFC034600EE103AAB4802F03DFAF6
:1022C000A94802F076FAF0EE407AB2EE047AF4EE23
:1022D000C77AF1EE10FACCBF01230023DBB2002B4A
:1022E00004D0B2EE040AA04802F027FA9F4802F098
:1022F00060FA10EE103A1846FEF726F996A3D3E9D5
:102300000023FDF7C3FF02460B4610461946FEF7B1
:102310006BFC034600EE103A944802F00EFA934824
:1023200002F047FAF0EE407AB2EE047AF4EEC77AA1
:10233000F1EE10FACCBF01230023DBB2002B04D056
:10234000B2EE040A894802F0F8F9864B1B78022B9A
:1023500040F0A7838648FEF7D2FEF0EE407AB7EE53
:10236000007A77EE877AB0EE670A8148FEF7B8FE0A
:102370007F48FEF7C4FEF0EE407AB3EE0E7AF4EE3C
:10238000C77AF1EE10FACCBF01230023DBB2002B99
:1023900004D0B3EE0E0A7648FEF7A2FE7548FEF7AB
:1023A000AEFEF0EE407AB7EE007A77EE877AB0EEC6
:1023B000670A7048FEF794FE6E48FEF7A0FEF0EE46
:1023C000407AB3EE0E7AF4EEC77AF1EE10FACCBF93
:1023D00001230023DBB2002B00F06383B3EE0E0A6F
:1023E0006448FEF77DFE5CE35D4B1B78032B40F0F9
:1023F00058835C4B1B78012B5DD15B4802F0E8F9F8
:1024000010EE103A1846FEF79FF853A3D3E90023C5
:10241000FDF73CFF02460B4610461946FEF7E4FB6B
:10242000034600EE103A504802F096F94E4802F08A
:10243000CFF9F0EE407AB2EE047AF4EEC77AF1EE1C
:1024400010FACCBF01230023DBB2002B04D0B2EE84
:10245000040A454802F080F9444802F0B9F910EE48
:10246000103A1846FEF770F83BA3D3E90023FDF7B6
:102470000DFF02460B4610461946FEF7B5FB034614
:1024800000EE103A394802F067F9384802F0A0F936
:10249000F0EE407AB2EE047AF4EEC77AF1EE10FA7A
:1024A000CCBF01230023DBB2002B04D0B2EE040A20
:1024B0002E4802F051F92B4B1B78022B40F0F18291
:1024C0002B48FEF73AFEF0EE407A9FED2B7A77EE3E
:1024D000877AB0EE670A2648FEF720FE2448FEF70A
:1024E0002CFEF0EE407AB0EE007AF4EEC77AF1EE10
:1024F00010FACCBF01230023DBB2002B04D0B0EED6
:10250000000A1B48FEF70AFE1A48FEF716FEF0EE18
:10251000407A9FED197A77EE877AB0EE670A154810
:10252000FEF7FCFD1348FEF708FEF0EE407AB0EE31
:10253000007AF4EEC77AF1EE10FACCBF0123002343
:10254000DBB2002B00F0AD82B0EE000A0948FEF7C6
:10255000E5FDA6E2AFF300809A9999999999B93F60
:10256000E0080020000000208C020020BC020020B7
:102570001C03002030030020CDCCCC3DFEF7ACFC8A
:1025800003461A4640F213539A4294BF0123002394
:10259000DBB2002B00F08582794B1B78002B02D038
:1025A000784B02221A70764B1B78012B40F0F88092
:1025B000754B1B78012B69D1744802F0EBF810EED3
:1025C000103A1846FDF7C0FF69A3D3E90023FDF7D1
:1025D0005BFE02460B4610461946FEF705FB034616
:1025E00000EE103A694802F099F8684802F0D2F813
:1025F00010EE103A1846FDF7A7FF01231C465EA314
:10260000D3E90023FEF76AFA0346002B01D1002329
:102610001C46E3B2002B04D09FED5D0A5B4802F03C
:102620007DF85C4802F0B6F810EE103A1846FDF757
:102630008BFF4FA3D3E90023FDF726FE02460B468E
:1026400010461946FEF7D0FA034600EE103A5148FC
:1026500002F064F84F4802F09DF810EE103A184668
:10266000FDF772FF01231C4643A3D3E90023FEF7C5
:1026700035FA0346002B01D100231C46E3B2002BA0
:1026800004D09FED430A434802F048F83E4B1B78C4
:10269000022B40F006824048FEF713FD10EE103A80
:1026A0001846FDF751FF32A3D3E90023FDF7ECFDF7
:1026B00002460B4610461946FEF796FA034600EE10
:1026C000103A3548FEF7EEFC3348FEF7FAFC10EE00
:1026D000103A1846FDF738FF01231C4626A3D3E91C
:1026E0000023FEF7FBF90346002B01D100231C4613
:1026F000E3B2002B04D09FED260A2748FEF7D2FC58
:102700002648FEF7DEFC10EE103A1846FDF71CFFD7
:1027100017A3D3E90023FDF7B7FD02460B46104689
:102720001946FEF761FA034600EE103A1B48FEF721
:10273000B9FC1A48FEF7C5FC10EE103A1846FDF732
:1027400003FF01231C460CA3D3E90023FEF7C6F9BF
:102750000346002B01D100231C46E3B2002B00F0FE
:10276000A0819FED0B0A0D48FEF79CFC99E100BF8C
:102770007B14AE47E17A843F9A9999999999C93F18
:10278000E0080020E1080020000000208C0200206A
:10279000CDCCCC3DBC0200201C0300203003002027
:1027A000C94B1B78022B40F0BD80C84B1B78012B16
:1027B00069D1C74801F0FDFF10EE103A1846FDF749
:1027C000C3FEBDA3D3E90023FDF75EFD02460B4621
:1027D00010461946FEF708FA034600EE103ABC48C8
:1027E00001F0ABFFBA4801F0E4FF10EE103A1846D2
:1027F000FDF7AAFE01231C46B1A3D3E90023FEF78F
:102800006DF90346002B01D100231C46E3B2002BD7
:1028100004D09FEDB00AAE4801F08FFFAE4801F042
:10282000C8FF10EE103A1846FDF78EFEA2A3D3E9BA
:102830000023FDF729FD02460B4610461946FEF718
:10284000D3F9034600EE103AA34801F076FFA24800
:1028500001F0AFFF10EE103A1846FDF775FE0123A8
:102860001C4697A3D3E90023FEF738F90346002B53
:1028700001D100231C46E3B2002B04D09FED950A42
:10288000954801F05AFF914B1B78022B40F00981CB
:102890009248FEF734FCF0EE407AB7EE007A77EE1D
:1028A000C77AB0EE670A8D48FEF71AFC8B48FEF730
:1028B00026FCF0EE407AB1EE087AF4EEC77AF1EE3B
:1028C00010FA4CBF01230023DBB2002B04D0B1EE81
:1028D000040A8248FEF704FC8148FEF710FCF0EE83
:1028E000407AB7EE007A77EEC77AB0EE670A7C4896
:1028F000FEF7F6FB7A48FEF702FCF0EE407AB1EE06
:10290000087AF4EEC77AF1EE10FA4CBF01230023E7
:10291000DBB2002B00F0C580B1EE040A7048FEF770
:10292000DFFBBEE0684B1B78032B40F0BA80674B9F
:102930001B78012B69D1664801F04AFF10EE103A6E
:102940001846FDF701FE5CA3D3E90023FDF79CFCCC
:1029500002460B4610461946FEF746F9034600EEBE
:10296000103A5B4801F0F8FE594801F031FF10EED3
:10297000103A1846FDF7E8FD01231C4650A3D3E9A1
:102980000023FEF7ABF80346002B01D100231C46C1
:10299000E3B2002B04D09FED530A4D4801F0DCFE5A
:1029A0004D4801F015FF10EE103A1846FDF7CCFD2A
:1029B00041A3D3E90023FDF767FC02460B4610460E
:1029C0001946FEF711F9034600EE103A424801F0AD
:1029D000C3FE414801F0FCFE10EE103A1846FDF728
:1029E000B3FD01231C4636A3D3E90023FEF776F896
:1029F0000346002B01D100231C46E3B2002B04D078
:102A00009FED380A344801F0A7FE304B1B78022BAB
:102A100047D13248FEF791FBF0EE407A9FED2D7AD8
:102A200077EEC77AB0EE670A2C48FEF777FB2B48A3
:102A3000FEF783FBF0EE407AB6EE007AF4EEC77A4A
:102A4000F1EE10FA4CBF01230023DBB2002B04D0BF
:102A50009FED250A2148FEF761FB2148FEF76DFB3B
:102A6000F0EE407A9FED1B7A77EEC77AB0EE670AF8
:102A70001B48FEF753FB1A48FEF75FFBF0EE407A67
:102A8000B6EE007AF4EEC77AF1EE10FA4CBF0123ED
:102A90000023DBB2002B04D09FED130A1048FEF791
:102AA0003DFB124B1B78012B22D164210120FEF744
:102AB00003FC25E0AFF300809A9999999999B93F61
:102AC0009A9999999999C93FE0080020000000203F
:102AD0008C020020CDCCCC3DBC0200201C03002089
:102AE00030030020CDCC4C3ECDCCCC3EE1080020C4
:102AF000B64B1B78022B03D164210220FEF7DCFBCE
:102B000001F0ACFBB24B1B78022B03D0B04B1B780F
:102B1000032B08D101F020FCAE4BD3ED007AB0EED0
:102B2000670AFEF72DFCAA4B1B78012B50D1FEF74C
:102B300097F903461BB21946A748FEF77BFAB0EE99
:102B4000408AA548FEF7F9FAF0EE407A68EE277A57
:102B5000A24BC3ED007AFEF78FF903461BB219466C
:102B60009F48FEF767FAB0EE408A9D48FEF7E5FA07
:102B7000F0EE407A68EE277A9A4BC3ED007AFEF7C2
:102B800063F903461A4640F21A439A428CBF012366
:102B90000023DBB2002B14D0FEF77AF903461BB2F8
:102BA00019469148FEF746FAB0EE408A8E48FEF785
:102BB000C4FAF0EE407A68EE277A8C4BC3ED007AC7
:102BC00003E08A4B4FF000021A600120FEF71CFB65
:102BD0007F4B1B78022B7DD1FEF742F903461BB2D7
:102BE00019467D48FEF726FAF0EE407A804BC3ED99
:102BF000007AFEF741F903461BB219467848FEF702
:102C000019FAF0EE407A7B4BC3ED007AFEF7A0FD97
:102C1000B0EE408A7048FEF772FAF0EE407A68EE45
:102C2000277A754BC3ED007AFEF7A0FDF0EE407AEF
:102C3000B1EE678A6A48FEF762FAF0EE407A68EE13
:102C4000277A6E4BC3ED007A694B93ED007A6A4B9D
:102C5000D3ED007A37EE678A5F48FEF732FAF0EE7E
:102C6000407A68EE277A5D4BC3ED007A614B93EDB5
:102C7000007A624BD3ED007A37EE678A5848FEF748
:102C800020FAF0EE407A68EE277A564BC3ED007AD0
:102C9000FEF7DAF803461A4640F21A439A428CBF0E
:102CA00001230023DBB2002B0DD0FEF7F1F8034621
:102CB0001BB219464C48FEF7BDF9F0EE407A4B4B7B
:102CC000C3ED007A03E0494B4FF000021A60022086
:102CD000FEF79AFA3E4B1B78032B40F09880FEF7E4
:102CE000BFF803461BB219463B48FEF7A3F9F0EEC6
:102CF000407A3F4BC3ED007AFEF7BEF803461BB2A5
:102D000019463748FEF796F9F0EE407A394BC3ED95
:102D1000007AFEF739FDB0EE408A2F48FEF7EFF952
:102D2000F0EE407A68EE277A334BC3ED007AFEF777
:102D300039FDF0EE407AB1EE678A2948FEF7DFF9F7
:102D4000F0EE407A68EE277A2C4BC3ED007A284BE0
:102D500093ED007A284BD3ED007A37EE678A1E4850
:102D6000FEF7AFF9F0EE407A68EE277A1B4BC3ED21
:102D7000007A204B93ED007A204BD3ED007A37EEAA
:102D8000678A1748FEF79DF9F0EE407A68EE277AD9
:102D9000144BC3ED007AFEF757F803461A4640F28B
:102DA0001A439A428CBF01230023DBB2002B27D0A9
:102DB000FEF76EF803461BB219460B48FEF73AF9C8
:102DC000F0EE407A094BC3ED007A1DE0E1080020E7
:102DD00000000020D80800201C030020F00800207C
:102DE00030030020F408002044030020F8080020ED
:102DF00040090020480900204C090020500900200B
:102E0000BB4B4FF000021A600320FEF7FDF9B94BEF
:102E1000D3ED007AB0EE670AB748FEF781FEB0EE58
:102E2000408A01F003FBF0EE407AB0EE670AB34847
:102E3000FEF7C3FEF0EE408A01F0F8FAF0EE407AB9
:102E4000B0EE670AAE48FEF76BFEB0EE407AAD4BCF
:102E5000D3ED007AAC4B1B781946F0EE671AB0EE52
:102E6000471AF0EE680AB0EE480AA84801F07EFB67
:102E7000F0EE407AA64BC3ED007AA64BD3ED007A74
:102E8000B0EE670AA448FEF74BFEB0EE408A01F0B0
:102E9000DBFAF0EE407AB0EE670AA048FEF78DFE4E
:102EA000F0EE408A01F0D0FAF0EE407AB0EE670A18
:102EB0009B48FEF735FEB0EE407A924BD3ED007A98
:102EC000914B1B781946F0EE671AB0EE471AF0EEF8
:102ED000680AB0EE480A934801F048FBF0EE407AE9
:102EE000914BC3ED007A824BD3ED007AB0EE670AC6
:102EF0008E48FEF715FEB0EE408A01F0B3FAF0EE10
:102F0000407AF1EE677AB0EE670A8948FEF755FE1F
:102F1000F0EE408A01F0A6FAF0EE407AF1EE677A20
:102F2000B0EE670A8348FEF7FBFDB0EE407A754BC2
:102F3000D3ED007A744B1B781946F0EE671AB0EEA9
:102F4000471AF0EE680AB0EE480A7B4801F00EFB23
:102F5000F0EE407A794BC3ED007A6C4801F01AFC30
:102F6000F0EE407A764BC3ED007A684801F021FC20
:102F7000F0EE407A734BC3ED007A644801F028FC10
:102F8000F0EE407A704BC3ED007A664801F002FC27
:102F9000F0EE407A6D4BC3ED007A624801F009FC17
:102FA000F0EE407A6A4BC3ED007A5E4801F010FC07
:102FB000F0EE407A674BC3ED007A5F4801F0EAFB20
:102FC000F0EE407A644BC3ED007A5B4801F0F1FB10
:102FD000F0EE407A614BC3ED007A01F027FAF0EE93
:102FE000407A5F4BC3ED007A01F020FAF0EE407AB0
:102FF000B0EE670A4148FEF7E0FDF0EE407A594B2B
:10300000C3ED007A01F012FAF0EE407AB0EE670AF2
:103010003B48FEF785FDF0EE407A534BC3ED007A56
:10302000344BD3ED007AB0EE670A3348FEF778FDF3
:10303000F0EE407A4D4BC3ED007A344801F09BFB33
:10304000F0EE407A4A4BC3ED007A304801F0CFFBF6
:10305000F0EE407A474BC3ED007A2C4801F0D6FBE6
:10306000F0EE407A444BC3ED007A284801F0DDFBD6
:10307000F0EE407A414BC3ED007A244801F0F3FBB7
:10308000F0EE407A3E4BC3ED007A204801F0DCFBC5
:10309000F0EE407A3B4BC3ED007A3B48FEF711F867
:1030A000F0EE407A394BC3ED007A3748FEF727F847
:1030B000F0EE407A364BC3ED007A3348FEF73DF828
:1030C000F0EE407A334BC3ED007A334B1B88B3F5F7
:1030D000B46F63D2304B1B88B3F5966F5ED9012075
:1030E000FEF73AF84FF4FA710120FEF7E5F85DE0DB
:1030F000F8080020F0080020980500205803002060
:1031000078040020D8080020000000208C02002055
:10311000E4080020F4080020F8050020B80300208F
:10312000D8040020BC020020E80800205806002037
:103130001804002038050020EC020020EC080020D4
:10314000FC080020000900200409002008090020D4
:103150000C09002010090020140900201809002083
:1031600028090020300900203409002044090020EB
:103170002C0900201C09002020090020240900201F
:10318000380900203C0900201C03002054090020BD
:103190005C090020580900206E0900200020FDF77E
:1031A000DBFF4FF4FA710020FEF786F840F21A4078
:1031B000FEF706FBFEF766FB0346012B0CBF01235F
:1031C0000023DBB2002B00F05F81FDF73DFE0346DC
:1031D0001C46FEF74BFB03469BB223449AB2A04B1E
:1031E0001A809F4B1B8840F24472934203D99C4B38
:1031F00040F244721A809A4B1B8807EE903AB8EE60
:10320000E77A984BD3ED007A37EE677A964BD3ED99
:10321000007A37EE277A954BD3ED007A77EE677A0E
:10322000FCEEE77A17EE903A9AB2914B1A808C4BEB
:103230001B8807EE903AB8EEE77A8A4BD3ED007A16
:1032400037EE277A884BD3ED007A37EE277A874B13
:10325000D3ED007A77EE277AFCEEE77A17EE903A14
:103260009AB2844B1A807E4B1B8807EE903AB8EED8
:10327000E77A7C4BD3ED007A37EE277A7A4BD3EDA1
:10328000007A37EE677A794BD3ED007A77EE677A7A
:10329000FCEEE77A17EE903A9AB2774B1A80704BB1
:1032A0001B8807EE903AB8EEE77A6E4BD3ED007AC2
:1032B00037EE677A6C4BD3ED007A37EE677A6B4B5B
:1032C000D3ED007A77EE277AFCEEE77A17EE903AA4
:1032D0009AB26A4B1A806A4B1B8840F2A3629342EF
:1032E00070D8674B1B88B3F5966F6BD9604B1B8802
:1032F00007EE903AB8EEE77A614B1B88C3F5C863D6
:1033000007EE903AF8EEE77ADFED5E6A67EEA67AAE
:1033100077EE277AFCEEE77A17EE903A9AB2544BA2
:103320001A80544B1B8807EE903AB8EEE77A544B5C
:103330001B88C3F5C86307EE903AF8EEE77ADFED35
:10334000516A67EEA67A77EE277AFCEEE77A17EEF7
:10335000903A9AB2474B1A80474B1B8807EE903A37
:10336000B8EEE77A464B1B88C3F5C86307EE903A80
:10337000F8EEE77ADFED436A67EEA67A77EE277A12
:10338000FCEEE77A17EE903A9AB23B4B1A803B4B31
:103390001B8807EE903AB8EEE77A394B1B88C3F5E5
:1033A000C86307EE903AF8EEE77ADFED366A67EE2B
:1033B000A67A77EE277AFCEEE77A17EE903A9AB281
:1033C0002E4B1A802A4B1B88B3F5FA6F03D9284B72
:1033D0004FF4FA621A80274B1B88B3F5FA6F03D9B2
:1033E000244B4FF4FA621A80234B1B88B3F5FA6F13
:1033F00003D9214B4FF4FA621A80204B1B88B3F596
:10340000FA6F03D91D4B4FF4FA621A80184B1B88D0
:1034100040F21942934203D8154B40F21A421A80E7
:10342000144B1B8840F21942934203D8114B40F2CF
:103430001A421A80104B1B8840F21942934203D85B
:103440000D4B40F21A421A800C4B1B8840F2194275
:10345000934232D8094B40F21A421A802DE000BF45
:1034600060090020E8080020E4080020EC080020A3
:1034700002000020040000200600002008000020B8
:103480006E0900209A99193E324801F02DF9324810
:1034900001F02AF9314801F027F9314B4FF47A72E3
:1034A0001A80304B4FF47A721A802F4B4FF47A7295
:1034B0001A802E4B4FF47A721A80294B1A882C4BA3
:1034C0005A63284B1A882B4B5A63274B1A882A4B6E
:1034D0005A63264B1A88284B9A63274B41F287324E
:1034E0005A62234B41F287325A62224B41F28732B1
:1034F0005A62224B5A68224B1B68D31A07EE903A45
:10350000B8EE677ADFED1F6AC7EE267A1E4BC3ED71
:10351000007A1A4B5A681A4B1B68D31A1B4A9342FB
:1035200094BF01230023DBB2002B00D0F1E7134B43
:103530005A68134B1B68D31A07EE903AB8EE677AB5
:10354000DFED106AC7EE267A114BC3ED007AFEF765
:1035500068BC00BF8C020020BC020020EC020020EE
:1035600002000020040000200600002008000020C7
:10357000004401400048014000080040001000E005
:10358000D40800204054894CDC080020EF49020098
:10359000D808002080B59EB000AF07F15003282264
:1035A0000021184609F0BCF907F13C0300221A601B
:1035B0005A609A60DA601A613B463C220021184644
:1035C00009F0AEF903233B654FF480337B6500239C
:1035D000BB6501233B6610237B660223FB664FF429
:1035E00080333B674FF4E0137B6707F150031846C5
:1035F00003F032FF0346002B14BF01230023DBB28C
:10360000002B01D000F032FC0F23FB6302233B644C
:1036100000237B644FF48063BB640023FB6407F1E9
:103620003C030221184604F01FFE0346002B14BF82
:1036300001230023DBB2002B01D000F017FC222372
:103640003B600023FB600023FB613B46184605F00E
:1036500041F80346002B14BF01230023DBB2002BEB
:1036600001D000F003FC00BF7837BD4680BD0000EC
:1036700080B586B000AF3B4600221A605A609A605F
:10368000DA601A615A612C4B2C4A1A602A4B4FF4AB
:1036900040325A60284B00229A60274B00221A6160
:1036A000254B00225A76244B002283F82020224BFF
:1036B0000022DA62204B01229A621F4B0022DA605C
:1036C0001D4B0122DA611C4B002283F830201A4B7B
:1036D00004225A61184B00221A76174B00225A63B3
:1036E000154801F0F5FC0346002B14BF012300230D
:1036F000DBB2002B01D000F0B9FB01233B600123BA
:103700007B600023FB600023BB6000233B61002340
:103710007B613B461946084802F00EF90346002B30
:1037200014BF01230023DBB2002B01D000F09EFB6D
:1037300000BF1837BD4680BDB8060020000100500C
:1037400080B500AF234B244A1A60224B40F20B2273
:103750005A60204B00229A601E4B0122DA601D4BFA
:1037600000221A611B4B00225A611A4B00229A61F7
:10377000184B0022DA61174B00221A62154802F03A
:10378000F1FF0346002B14BF01230023DBB2002B03
:1037900001D000F06BFB00210E4803F0C5FD03468D
:1037A000002B14BF01230023DBB2002B01D000F05B
:1037B0005DFB0021074803F002FE0346002B14BF07
:1037C00001230023DBB2002B01D000F04FFB00BF30
:1037D00080BD00BF080700200054004080B500AF46
:1037E0001D4B1E4A1A601C4B4FF482725A601A4BD2
:1037F00000229A60184B4FF4E062DA60164B002208
:103800001A61154B00225A61134B4FF400729A61F2
:10381000114B0022DA61104B00221A620E4B00227B
:103820005A620D4B00229A620B4B0722DA620A4B56
:1038300000221A63084B00225A63074805F0FAF881
:103840000346002B14BF01230023DBB2002B01D061
:1038500000F00CFB00BF80BD2802002000380040B3
:1038600080B588B000AF07F1140300221A605A60D7
:103870009A603B1D00221A605A609A60DA60284BF9
:103880004FF080421A60264B47225A60244B002298
:103890009A60234B4FF6FE72DA60214B00221A61C8
:1038A0001F4B00229A611E4805F004FA0346002BC4
:1038B00014BF01230023DBB2002B01D000F0D6FAA5
:1038C00000237B610023FB6107F1140319461448B0
:1038D00006F0DAF90346002B14BF01230023DBB204
:1038E000002B01D000F0C2FA00237B600123BB60F3
:1038F0000023FB600A233B613B1D00221946084858
:1039000005F010FC0346002B14BF01230023DBB29B
:10391000002B01D000F0AAFA00BF2037BD4680BDC1
:103920005407002080B58AB000AF07F11C030022C5
:103930001A605A609A603B4600221A605A609A6088
:10394000DA601A615A619A61514B524A1A60504BBF
:1039500047225A604E4B00229A604D4B41F287320B
:10396000DA604B4B00221A61494B80229A61484829
:1039700005F01DF90346002B14BF01230023DBB221
:10398000002B01D000F072FA0023FB6100237B6260
:1039900007F11C0319463E4806F076F90346002B52
:1039A00014BF01230023DBB2002B01D000F05EFA2C
:1039B00000233B604FF47A737B600023BB600023DD
:1039C0003B613B4600221946314805F02DFB03467A
:1039D000002B14BF01230023DBB2002B01D000F029
:1039E00045FA2B4B1B689A69294B1B6842F0080269
:1039F0009A613B4604221946254805F015FB03460B
:103A0000002B14BF01230023DBB2002B01D000F0F8
:103A10002DFA1F4B1B689A691D4B1B6842F400620C
:103A20009A613B4608221946194805F0FDFA0346FB
:103A3000002B14BF01230023DBB2002B01D000F0C8
:103A400015FA134B1B68DA69114B1B6842F0080228
:103A5000DA613B460C2219460D4805F0E5FA0346AB
:103A6000002B14BF01230023DBB2002B01D000F098
:103A7000FDF9074B1B68DA69054B1B6842F40062CD
:103A8000DA61034801F084F800BF2837BD4680BDE5
:103A9000940700200008004080B592B000AF07F105
:103AA0002C0300221A605A609A60DA601A615A6127
:103AB0009A613B462C220021184608F031FF3F4B0B
:103AC0003F4A1A603D4B47225A603C4B00229A60A5
:103AD0003A4B41F28732DA60384B00221A61374B99
:103AE00000225A61354B80229A61344805F034F83F
:103AF0000346002B14BF01230023DBB2002B01D0AF
:103B000000F0B4F92D4805F052F80346002B14BF1D
:103B100001230023DBB2002B01D000F0A7F9002322
:103B2000FB624FF47A733B6300237B630023BB6328
:103B30000023FB6300233B6400237B6407F12C0319
:103B4000002219461D4805F06FFA0346002B14BFEA
:103B500001230023DBB2002B01D000F087F9174BC3
:103B60001B689A69154B1B6842F008029A61002392
:103B70003B6000237B600023BB600023FB600023CD
:103B80003B614FF400537B610023BB610023BB62A8
:103B90003B461946094806F0F7F80346002B14BFC8
:103BA00001230023DBB2002B01D000F05FF90348B2
:103BB00000F0EEFF00BF4837BD4680BDD4070020AF
:103BC0000044014080B592B000AF07F12C03002201
:103BD0001A605A609A60DA601A615A619A613B46CB
:103BE0002C220021184608F09BFE3F4B3F4A1A60EA
:103BF0003D4B47225A603C4B00229A603A4B41F2BF
:103C00008732DA60384B00221A61374B00225A6142
:103C1000354B80229A61344804F09EFF0346002B06
:103C200014BF01230023DBB2002B01D000F01EF9EA
:103C30002D4804F0BCFF0346002B14BF01230023D2
:103C4000DBB2002B01D000F011F90023FB624FF42E
:103C50007A733B6300237B630023BB630023FB6316
:103C600000233B6400237B6407F12C0300221946E8
:103C70001D4805F0D9F90346002B14BF012300238A
:103C8000DBB2002B01D000F0F1F8174B1B689A69EA
:103C9000154B1B6842F008029A6100233B60002329
:103CA0007B600023BB600023FB6000233B614FF47B
:103CB00000537B610023BB610023BB623B46194676
:103CC000094806F061F80346002B14BF01230023C6
:103CD000DBB2002B01D000F0C9F8034800F058FF18
:103CE00000BF4837BD4680BD140800200048014091
:103CF00080B500AF164B174A1A60154B4FF461425E
:103D00005A60134B00229A60114B0022DA60104B6C
:103D100000221A610E4B0C225A610D4B00229A614F
:103D20000B4B0022DA610A4B00221A62084B002278
:103D30005A62074806F0C4F80346002B14BF01235B
:103D40000023DBB2002B01D000F090F800BF80BD53
:103D5000540800200044004080B58AB000AF07F14D
:103D6000140300221A605A609A60DA601A613C4BB0
:103D70005B693B4A43F400235361394B5B6903F4AD
:103D800000233B613B69364B5B69354A43F4800352
:103D90005361334B5B6903F48003FB60FB68304B7A
:103DA0005B692F4A43F4003353612D4B5B6903F485
:103DB0000033BB60BB682A4B5B69294A43F480230C
:103DC0005361274B5B6903F480237B607B6800228F
:103DD0004FF42041234802F093FC002202214FF0CF
:103DE000904002F08DFC002241F230011E4802F0AA
:103DF00087FC012208211C4802F082FC4FF420437A
:103E00007B610123BB610023FB6100233B6207F15F
:103E100014031946134802F0F9FA02237B610123C7
:103E2000BB610023FB6100233B6207F114031946C9
:103E30004FF0904002F0EAFA41F238037B6101232F
:103E4000BB610023FB6100233B6207F114031946A9
:103E5000054802F0DBFA00BF2837BD4680BD00BF31
:103E600000100240000800480004004880B400AF81
:103E700000BFBD465DF8047B7047000080B582B08E
:103E800000AF786039607B68012B7FD13B684FF6CB
:103E9000FF7293427AD1DFED5A1A9FED5A1ADFED85
:103EA0005A0A9FED5A0A5A4800F034FBDFED541AC3
:103EB0009FED581ADFED580A9FED580A584800F058
:103EC00029FBDFED4F1A9FED571ADFED570A9FEDE3
:103ED000570A574800F01EFBB7EE001AF1EE040A2D
:103EE0009FED540A5448FDF785F8B7EE001AF1EE3D
:103EF000040A9FED520A5248FDF77CF8B7EE001A0B
:103F0000F1EE040A9FED4D0A4E48FDF773F8DFED20
:103F10004E0A9FED4E0A4E48FDF702FDDFED4A0ABC
:103F20009FED4A0A4B48FDF7FBFCDFED470A9FED8A
:103F3000470A4948FDF7F4FCDFED430AB2EE0E0AEA
:103F40004648FDF7EDFCDFED400AB2EE0E0A4448AC
:103F5000FDF7E6FCDFED3C0AB2EE0E0A4148FDF744
:103F6000DFFCDFED390A9FED390A3F48FDF7D8FC49
:103F7000DFED350A9FED350A3C48FDF7D1FCDFED5A
:103F8000320A9FED320A3A48FDF7CAFC7B68002BE3
:103F900031D13B684FF6FF7293422CD13448FDF784
:103FA0009DFC3248FDF79AFC2F48FDF797FC2D4801
:103FB000FDF794FC2A48FDF791FC2848FDF78EFC9C
:103FC0002548FDF78BFC2348FDF788FC2048FDF7CA
:103FD00085FC1C48FCF7EEFF1948FCF7EBFF164880
:103FE000FCF7E8FF124800F075FA0D4800F072FA8D
:103FF000074800F06FFA00BF0837BD4680BD00BF1C
:104000000000C8433333A3409A99193FC3F5683F72
:104010008C0200206666B6406666663FA4707D3FEF
:10402000BC0200200000000066666640D7A3703F17
:10403000EC020020713D0A3F1C03002052B81E3FD5
:1040400030030020440300206F12033B0000204295
:1040500058030020B8030020180400207804002032
:10406000D80400203805002098050020F80500201D
:104070005806002080B500AF4FF6FF710120FFF712
:10408000FDFE80BD80B500AF4FF6FF710020FFF749
:10409000F5FE80BD80B586B004AF4FF47A7302930D
:1040A00001230193FB1D009301237522D021244895
:1040B00002F0FCFCFB79682B3ED10023BB714FF46E
:1040C0007A73029301230193BB1D009301236B229A
:1040D000D0211B4802F0D6FB322000F0D5FF102380
:1040E000BB714FF47A73029301230193BB1D0093BC
:1040F00001231C22D021124802F0C4FB1023BB7103
:104100004FF47A73029301230193BB1D00930123A3
:104110001B22D0210A4802F0B5FB0323BB714FF4E8
:104120007A73029301230193BB1D009301231A228A
:10413000D021034802F0A6FB00BF0837BD4680BD72
:104140000807002080B582B000AF0023FB8046E066
:10415000B7F90620384B83FB0213D910D317C91ABD
:104160000B469B000B4499000B44D31A1BB2002B47
:1041700003D11021314802F0DBFA00F06FF8304B28
:10418000B3F900309AB22F4BB3F900309BB213440D
:104190009BB21AB22A4B1A802B4BB3F900309AB259
:1041A0002A4BB3F900309BB213449BB21AB2264B90
:1041B0001A80274BB3F900309AB2264BB3F900307E
:1041C0009BB213449BB21AB2214B1A80022000F01A
:1041D0005BFFB7F906309BB201339BB2FB80B7F9A6
:1041E0000630B3F5FA7FB3DB154BB3F900301A4A4A
:1041F00082FB03125211DB17D31A1AB2104B1A802A
:10420000114BB3F90030144A82FB03125211DB1731
:10421000D31A1AB20C4B1A800D4BB3F900300E4A68
:1042200082FB03125211DB17D31A1AB2084B1A8001
:1042300000BF0837BD4680BD1F85EB510004004814
:1042400080090020740900208209002076090020DE
:104250008409002078090020D34D621080B586B013
:1042600004AF4FF47A730293062301933B46009305
:1042700001234322D0212D4802F018FC3B781B0279
:104280001AB27B781BB213431AB2294B1A80BB783F
:104290001B021AB2FB781BB213431AB2254B1A80C9
:1042A0003B791B021AB27B791BB213431AB2224B21
:1042B0001A801F4BB3F900301A46204BB3F9003077
:1042C000D31A07EE903AB8EEE77ADFED1D6AC7EE33
:1042D000267A1C4BC3ED007A164BB3F900301A4610
:1042E000194BB3F90030D31A07EE903AB8EEE77ADB
:1042F000DFED136AC7EE267A144BC3ED007A0E4B3E
:10430000B3F900301A46124BB3F90030D31A07EE56
:10431000903AB8EEE77ADFED0A6AC7EE267A0D4BDF
:10432000C3ED007A00BF0837BD4680BD08070020F6
:1043300074090020760900207809002080090020F7
:1043400033330342DC09002082090020E409002005
:1043500084090020F009002080B586B004AF4FF436
:104360007A730293062301933B46009301233B2279
:10437000D021254802F09AFB3B781B021AB27B78C9
:104380001BB213431AB2214B1A80BB781B021AB21C
:10439000FB781BB213431AB21D4B1A803B791B02E8
:1043A0001AB27B791BB213431AB21A4B1A80174BFD
:1043B000B3F900301A46184BB3F90030D31A07EEA0
:1043C000903AF8EEE77A154BC3ED007A104BB3F94B
:1043D00000301A46124BB3F90030D31A07EE903A68
:1043E000F8EEE77A0F4BC3ED007A0A4BB3F90030D1
:1043F00007EE903AF8EEE77A0B4BC3ED007A00BF78
:104400000837BD4680BD00BF080700207A0900209C
:104410007C0900207E0900200C000020E809002013
:104420000E000020E0090020EC09002080B400AF5D
:10443000044B1B6807EE903AB0EE670ABD465DF884
:10444000047B7047DC09002080B400AF044B1B687C
:1044500007EE903AB0EE670ABD465DF8047B704700
:10446000E409002080B400AF044B1B6807EE903ACB
:10447000B0EE670ABD465DF8047B7047F009002086
:1044800080B400AF044B1B6807EE903AB0EE670AA9
:10449000BD465DF8047B7047E809002080B400AF9A
:1044A000044B1B6807EE903AB0EE670ABD465DF814
:1044B000047B7047E009002080B400AF044B1B6808
:1044C00007EE903AB0EE670ABD465DF8047B704790
:1044D000EC09002080B483B000AF7860044A7B68A8
:1044E0001A607B6818460C37BD465DF8047B704740
:1044F00000F3000880B582B000AF78607868FFF7FD
:10450000E9FF3021786806F0A9F87B68184608377B
:10451000BD4680BD80B487B000AF786187ED040AE6
:10452000C7ED030A87ED021AC7ED011A0E4A7B692F
:104530001A607B693A695A607B69FA689A607B699C
:10454000BA68DA607B697A685A617B694FF0000269
:104550009A617B694FF000025A627B6918461C37EA
:10456000BD465DF8047B704700F3000880B487B057
:1045700000AF786187ED040AC7ED030A87ED021AE0
:10458000C7ED011A0B46FB7097ED047AD7ED037A5D
:1045900077EE677A7B69C3ED077A7B6993ED017AE1
:1045A0007B69D3ED077A67EE277A7B69C3ED087ADA
:1045B0007B6993ED097A7B69D3ED076A7B69D3ED5B
:1045C000027A66EEA76AD7ED017A66EEA77A77EEF1
:1045D000277A7B69C3ED097A7B6993ED097A7B6958
:1045E000D3ED057AB4EEE77AF1EE10FA04DD7B69DB
:1045F0005A697B695A6214E07B6993ED097A7B6999
:10460000D3ED057AF1EE677AB4EEE77AF1EE10FABF
:1046100007D57B69D3ED057AF1EE677A7B69C3ED47
:10462000097AFB78012B05D0FB78022B02D0FB78AE
:10463000032B19D17B69D3ED067A97ED027A77EED9
:10464000677AF1EE677A7B69C3ED0B7A7B6993ED4C
:10465000037A7B69D3ED0B7A67EE277A7B69C3ED2A
:104660000A7A7B69BA689A617B6993ED087A7B69FB
:10467000D3ED097A37EE277A7B69D3ED0A7A77EEA4
:10468000277A7B69C3ED047A7B6993ED047A7B69B1
:10469000D3ED057AB4EEE77AF1EE10FA04DD7B692A
:1046A0005A697B691A6114E07B6993ED047A7B692E
:1046B000D3ED057AF1EE677AB4EEE77AF1EE10FA0F
:1046C00007D57B69D3ED057AF1EE677A7B69C3ED97
:1046D000047A7B691B6907EE903AB0EE670A1C37D3
:1046E000BD465DF8047B704780B483B000AF78604E
:1046F0007B684FF00002DA617B684FF000025A627B
:104700007B684FF000029A627B684FF000021A61EA
:1047100000BF0C37BD465DF8047B704780B483B0A2
:1047200000AF786087ED000A7B683A685A6000BF86
:104730000C37BD465DF8047B704780B483B000AF92
:10474000786087ED000A7B683A689A6000BF0C3792
:10475000BD465DF8047B704780B483B000AF7860DD
:1047600087ED000A7B683A68DA6000BF0C37BD4607
:104770005DF8047B704780B483B000AF78607B68DD
:10478000DB6907EE903AB0EE670A0C37BD465DF87C
:10479000047B704780B483B000AF78607B685B684F
:1047A00007EE903AB0EE670A0C37BD465DF8047B21
:1047B000704780B483B000AF78607B689B6807EE79
:1047C000903AB0EE670A0C37BD465DF8047B70473F
:1047D00080B483B000AF78607B68DB6807EE903A06
:1047E000B0EE670A0C37BD465DF8047B704780B4B5
:1047F00083B000AF78607B681B6A07EE903AB0EE3A
:10480000670A0C37BD465DF8047B704780B483B0FF
:1048100000AF78607B685B6A07EE903AB0EE670A9B
:104820000C37BD465DF8047B704780B483B000AFA1
:1048300078607B689B6A07EE903AB0EE670A0C37A7
:10484000BD465DF8047B704780B483B000AF7860EC
:104850007B681B6907EE903AB0EE670A0C37BD46DD
:104860005DF8047B704780B483B000AF78607B68EC
:10487000DB6A07EE903AB0EE670A0C37BD465DF88A
:10488000047B704780B483B000AF0F4B9B690E4A26
:1048900043F0010393610C4B9B6903F001037B60C0
:1048A0007B68094BDB69084A43F08053D361064BB0
:1048B000DB6903F080533B603B6800BF0C37BD46AB
:1048C0005DF8047B704700BF0010024080B58AB0DD
:1048D00000AF786007F1140300221A605A609A60F2
:1048E000DA601A617B681B68154A934224D1154B24
:1048F0005B69144A43F080535361124B5B6903F0C8
:1049000080533B613B690F4B5B690E4A43F40033B4
:1049100053610C4B5B6903F40033FB60FB681023AD
:104920007B610323BB610023FB6107F1140319467C
:104930004FF0904001F06AFD00BF2837BD4680BDB2
:10494000000100500010024080B58AB000AF7860CE
:1049500007F1140300221A605A609A60DA601A6143
:104960007B681B68174A934227D1174B5B69164A2D
:1049700043F480235361144B5B6903F480233B6150
:104980003B69C0237B611223BB610123FB610323CD
:104990003B6204237B6207F1140319460B4801F0C4
:1049A00035FD094BDB69084A43F40013D361064B1C
:1049B000DB6903F40013FB60FB6800BF2837BD46CA
:1049C00080BD00BF005400400010024000040048B9
:1049D00080B58AB000AF786007F1140300221A6036
:1049E0005A609A60DA601A617B681B68174A9342C2
:1049F00028D1174BDB69164A43F48043D361144B2B
:104A0000DB6903F480433B613B69114B5B69104AEE
:104A100043F4802353610E4B5B6903F48023FB60F6
:104A2000FB684FF460437B610223BB610023FB61A1
:104A300003233B6205237B6207F1140319460548F3
:104A400001F0E4FC00BF2837BD4680BD00380040BF
:104A5000001002400004004880B58AB000AF7860C2
:104A600007F1140300221A605A609A60DA601A6132
:104A70007B681B68B3F1804F30D11A4BDB69194A50
:104A800043F00103D361174BDB6903F001033B6182
:104A90003B69144B5B69134A43F400335361114B78
:104AA0005B6903F40033FB60FB6801237B61022335
:104AB000BB610023FB6100233B6201237B6207F1A2
:104AC000140319464FF0904001F0A0FC0022002191
:104AD0001C2001F064FC1C2001F07DFC00BF283785
:104AE000BD4680BD0010024080B485B000AF786044
:104AF0007B681B680A4A93420BD10A4BDB69094A5F
:104B000043F00403D361074BDB6903F00403FB604C
:104B1000FB6800BF1437BD465DF8047B704700BFDB
:104B2000000800400010024080B485B000AF7860FB
:104B30007B681B68134A93420CD1134B9B69124A42
:104B400043F400339361104B9B6903F40033FB6023
:104B5000FB6810E07B681B680C4A93420BD10A4B40
:104B60009B69094A43F480239361074B9B6903F4D3
:104B70008023BB60BB6800BF1437BD465DF8047B73
:104B8000704700BF0044014000100240004801404F
:104B900080B58CB000AF786007F11C0300221A606A
:104BA0005A609A60DA601A617B681B68434A9342D4
:104BB0003BD1434B5B69424A43F400335361404B62
:104BC0005B6903F40033BB61BB693D4B5B693C4AE5
:104BD00043F4802353613A4B5B6903F480237B6188
:104BE0007B694FF4C053FB6102233B6200237B626D
:104BF0000023BB620A23FB6207F11C0319464FF036
:104C0000904001F003FC4FF44073FB6102233B62D0
:104C100000237B620023BB620223FB6207F11C03BB
:104C20001946284801F0F2FB44E07B681B68264ADD
:104C300093421DD1224B5B69214A43F400335361F7
:104C40001F4B5B6903F400333B613B694023FB610D
:104C500002233B6200237B620023BB620123FB62D1
:104C600007F11C0319464FF0904001F0CFFB21E003
:104C70007B681B68154A93421CD1114B5B69104A33
:104C800043F4003353610E4B5B6903F40033FB6064
:104C9000FB688023FB6102233B6200237B620023CD
:104CA000BB620123FB6207F11C0319464FF09040E1
:104CB00001F0ACFB00BF3037BD4680BD00080040AE
:104CC0000010024000040048004401400048014038
:104CD00080B58AB000AF786007F1140300221A6033
:104CE0005A609A60DA601A617B681B68174A9342BF
:104CF00028D1174BDB69164A43F40033D361144BB8
:104D0000DB6903F400333B613B69114B5B69104A7B
:104D100043F4003353610E4B5B6903F40033FB60D3
:104D2000FB680C237B610223BB610023FB6103232F
:104D30003B6207237B6207F1140319464FF0904052
:104D400001F064FB00BF2837BD4680BD0044004031
:104D50000010024080B400AF00BFBD465DF8047B88
:104D6000704780B400AFFEE780B400AFFEE780B4C8
:104D700000AFFEE780B400AFFEE780B400AF00BF35
:104D8000BD465DF8047B704780B400AF00BFBD46F0
:104D90005DF8047B704780B400AF00BFBD465DF88E
:104DA000047B704780B500AF00F04EF900BF80BDB6
:104DB00080B500AF024804F017F800BF80BD00BF07
:104DC0005407002080B400AF01231846BD465DF8AB
:104DD000047B704780B582B000AF7860396007F01F
:104DE00065FD034616221A604FF0FF331846083758
:104DF000BD4680BD80B582B000AF78604FF0FF3116
:104E00007868FFF7E7FFFEE780B586B000AFF8608F
:104E1000B9607A6000237B610AE0AFF3008001464D
:104E2000BB685A1CBA60CAB21A707B6901337B61D5
:104E30007A697B689A42F0DB7B6818461837BD4672
:104E400080BD80B586B000AFF860B9607A6000239D
:104E50007B6109E0BB685A1CBA601B781846AFF347
:104E600000807B6901337B617A697B689A42F1DB60
:104E70007B6818461837BD4680BD80B483B000AF4C
:104E800078604FF0FF3318460C37BD465DF8047B61
:104E9000704780B483B000AF786039603B684FF4EE
:104EA00000525A60002318460C37BD465DF8047B5B
:104EB000704780B483B000AF7860012318460C3788
:104EC000BD465DF8047B704780B485B000AFF860E4
:104ED000B9607A60002318461437BD465DF8047B3C
:104EE0007047000080B584B000AF7860114B1B683C
:104EF000002B02D10F4B104A1A600E4B1B68FB604F
:104F00000C4B1A687B6813446A46934207D907F032
:104F1000CDFC03460C221A604FF0FF3306E0054B30
:104F20001A687B681344034A1360FB6818461037FD
:104F3000BD4680BD88090020080A002080B400AF6B
:104F4000084BD3F88830074A43F47003C2F888301E
:104F5000044B4FF000629A6000BFBD465DF8047BD1
:104F6000704700BF00ED00E0DFF834D0002103E01F
:104F70000C4B5B58435004310B480C4B42189A427F
:104F8000F6D30B4A02E0002342F8043B094B9A4255
:104F9000F9D3FFF7D3FF07F08FFCFCF735FEFEE7F0
:104FA00000A00020DCFC000800000020EC01002034
:104FB000EC010020080A0020FEE7000080B500AFE9
:104FC000084B1B68074A43F010031360032001F0ED
:104FD000DBF9002000F008F8FFF754FC0023184626
:104FE00080BD00BF0020024080B582B000AF786075
:104FF000124B1A68124B1B7819464FF47A73B3FBA5
:10500000F1F3B2FBF3F3184601F0F3F90346002B7A
:1050100001D001230EE07B680F2B0AD800227968AB
:105020004FF0FF3001F0BBF9064A7B6813600023A4
:1050300000E0012318460837BD4680BD100000205F
:10504000180000201400002080B400AF064B1B782D
:105050001A46064B1B681344044A136000BFBD4642
:105060005DF8047B704700BF18000020F4090020A1
:1050700080B400AF034B1B681846BD465DF8047B47
:10508000704700BFF409002080B584B000AF78609D
:10509000FFF7EEFFB8607B68FB60FB68B3F1FF3F92
:1050A00005D00A4B1B781A46FB681344FB6000BF0F
:1050B000FFF7DEFF0246BB68D31AFA689A42F7D8B8
:1050C00000BF00BF1037BD4680BD00BF18000020E4
:1050D00080B59AB000AF7860002387F8673000236E
:1050E0003B660023BB607B68002B01D10123C9E133
:1050F0007B681B69002B7B681B6C03F01003002B83
:1051000076D17B681B6C002B52D17B6800225A64DD
:105110007B680022DA647B6800229A647B68002244
:1051200083F83C207868FFF7D1FB7B681B689B689D
:1051300003F08053002B3BD1786800F047FF034613
:1051400087F867307B681B6C03F01003002B2FD1AE
:1051500097F86730002B2BD17B681B6C23F48853A6
:1051600023F0020343F002027B681A647B681B6829
:105170009A687B681B6822F040529A607B681B68C3
:105180009A687B681B6842F080529A60864B1B6865
:10519000864AA2FB03239A0C13469B0013445B0030
:1051A000BB6002E0BB68013BBB60BB68002BF9D170
:1051B0007B681B689B6803F08053002B07D07B68DB
:1051C0001B689B6803F00053B3F1005F10D17B684C
:1051D0001B6C23F0120343F010027B681A647B6897
:1051E0005B6C43F001027B685A64012387F86730E7
:1051F0007B681B6C03F01003002B40F0368197F89E
:105200006730002B40F031817B681B689B6803F09E
:105210000403002B40F029817B681B6C23F481730D
:1052200043F002027B681A647B681B68B3F1A04FED
:1052300004D07B681B685E4A934201D15D4B00E05D
:105240005D4BFB657B681B68B3F1A04F02D1584BE7
:10525000FB601AE07B681B68554A934203D14FF00C
:10526000A043FB6011E07B681B68544A934202D163
:10527000534BFB6009E07B681B68514A934202D1A3
:105280004E4BFB6001E00023FB607B681B689B6862
:1052900003F00303012B08D17B681B681B6803F034
:1052A0000103012B01D1012300E00023002B1CD1BD
:1052B000FB68002B10D0FB689B6803F00303012BF5
:1052C00007D1FB681B6803F00103012B01D1012307
:1052D00000E00023002B08D1FB6D9B6823F44032D3
:1052E0007B685B681A43FB6D9A607B685B7E5B033F
:1052F0007A68526B012A02D04FF4805200E00022FB
:105300001A437B68DB681A437B689B6813433A6ED9
:1053100013433B667B6893F82030012B1BD17B68DD
:105320005B7E002B09D17B685B6A013B5A043B6EB4
:10533000134343F480333B660DE07B681B6C23F022
:10534000220343F020027B681A647B685B6C43F0A5
:1053500001027B685A647B689B6A012B3AD07B68A8
:105360001B68164A934204D07B681B68144A934218
:1053700028D17B689B6AB3F5307F12D07B689B6A2B
:10538000B3F5807F0AD07B689B6AB3F5E07F02D0DB
:105390007B689B6A18E04FF4807315E04FF430731C
:1053A00012E04FF4E0730FE01000002083DE1B4397
:1053B000000100500003005000070050000400509E
:1053C000000500507B689B6A7A68D26A13433A6E84
:1053D00013433B667B681B689B6803F00C03002B40
:1053E00014D17B681B68DB687A68126823F48043F9
:1053F00023F00203D3607B681B7E9A037B6893F8DB
:1054000030305B0013433A6E13433B667B681B6886
:10541000DA681E4B13407A681268396E0B43D3600A
:105420007B681B69012B0CD17B681B681B6B23F00D
:105430000F017B68DB695A1E7B681B680A431A638D
:1054400007E07B681B681A6B7B681B6822F00F0201
:105450001A637B6800225A647B681B6C23F0030389
:1054600043F001027B681A640AE07B681B6C23F03E
:10547000120343F010027B681A64012387F8673037
:1054800097F8673018466837BD4680BD07C0F0FF03
:1054900080B584B000AF78600023FB737B681B6825
:1054A0009B6803F00403002B40F0F9807B6893F8BD
:1054B0003C30012B01D10223F4E07B68012283F808
:1054C0003C20786800F024FD0346FB73FB7B002B37
:1054D00040F0E0807B681B6C23F4706323F00103D1
:1054E00043F480727B681A647B681B68B3F1A04F39
:1054F00004D07B681B686D4A934206D16C4B9B6855
:1055000003F01F03002B10D005E06A4B9B6803F0EB
:105510001F03002B09D07B681B68B3F1A04F04D098
:105520007B681B68644A934215D17B681B6C23F42B
:1055300080127B681A647B681B68DB6803F0007369
:10554000002B36D07B681B6C23F4405343F480520D
:105550007B681A642DE07B681B6C43F480127B68C7
:105560001A647B681B68B3F1A04F04D07B681B688A
:105570004E4A93420AD14FF0A043DB6803F0007318
:10558000002B14BF01230023DBB208E04A4BDB6889
:1055900003F00073002B14BF01230023DBB2002BA8
:1055A00007D07B681B6C23F4405343F480527B6824
:1055B0001A647B681B6C03F48053B3F5805F06D1DB
:1055C0007B685B6C23F006027B685A6402E07B68B0
:1055D00000225A647B68002283F83C207B681B68A9
:1055E0001C221A607B681B68B3F1A04F04D07B6853
:1055F0001B682E4A934206D12D4B9B6803F01F0374
:10560000002B3ED005E02B4B9B6803F01F03002BC3
:1056100037D07B681B68B3F1A04F04D07B681B6850
:10562000224A934206D1224B9B6803F01F03052BAD
:1056300027D005E01F4B9B6803F01F03052B20D0EC
:105640007B681B68B3F1A04F04D07B681B68174AC6
:10565000934206D1164B9B6803F01F03092B10D011
:1056600005E0144B9B6803F01F03092B09D07B68EE
:105670001B68B3F1A04F04D07B681B680E4A9342AD
:105680000FD17B681B689A687B681B6842F0040234
:105690009A6006E07B68002283F83C2001E0022348
:1056A000FB73FB7B18461037BD4680BD00010050E0
:1056B00000030050000700500004005080B584B083
:1056C00000AF78600023FB737B6893F83C30012BBC
:1056D00001D1022323E07B68012283F83C206C2166
:1056E000786800F0D3FC0346FB73FB7B002B11D1E1
:1056F000786800F06BFC0346FB73FB7B002B09D141
:105700007B681B6C23F4885323F0010343F00102F0
:105710007B681A647B68002283F83C20FB7B184678
:105720001037BD4680BD000080B586B000AF786000
:10573000396000233B617B685B69082B02D1082339
:105740007B613AE07B681B68B3F1A04F04D07B68B3
:105750001B686E4A934201D16D4B00E06D4BFB60BC
:10576000FB689B6803F01F03002B12D17B681B684A
:10577000DB6803F00103012B1DD17B681B6C43F038
:1057800020027B681A647B68002283F83C20012396
:10579000B8E0FB689B6803F44043002B0BD07B68A8
:1057A0001B6C43F020027B681A647B68002283F83C
:1057B0003C200123A6E00C237B617B681B68B3F1CE
:1057C000A04F04D07B681B68504A934206D1504BCF
:1057D0009B6803F01F03002B10D005E04D4B9B6826
:1057E00003F01F03002B09D07B681B68B3F1A04FA7
:1057F00004D07B681B68484A934204D17B681B68CD
:10580000DB683B610FE07B681B68B3F1A04F04D0FD
:105810007B681B683D4A934202D14FF0A04300E0F1
:105820003D4BDB683B61FFF723FCB8601AE03B6847
:10583000B3F1FF3F16D03B68002B07D0FFF718FCF1
:105840000246BB68D31A3A689A420BD27B681B6C3B
:1058500043F004027B681A647B68002283F83C20D2
:1058600003234FE07B681B681A687B691340002B99
:10587000DDD07B681B6C43F400727B681A647B6824
:105880001B68DB6803F44063002B31D13B6903F4F0
:105890000053002B2CD17B681B681B6803F00803A6
:1058A000082B25D17B681B689B6803F00403002B41
:1058B00012D17B681B6C23F480727B681A647B684E
:1058C0001B6C03F48053002B12D17B681B6C43F0DC
:1058D00001027B681A640BE07B681B6C43F02002BA
:1058E0007B681A647B685B6C43F001027B685A64D6
:1058F0003B6903F48043002B03D17B681B687A6902
:105900001A60002318461837BD4680BD00010050BC
:1059100000030050000700500004005080B483B022
:1059200000AF78607B681B681B6C18460C37BD465F
:105930005DF8047B7047000080B49BB000AF7860D6
:105940003960002387F867300023BB607B6893F8D9
:105950003C30012B01D10223CBE27B68012283F88A
:105960003C207B681B689B6803F00403002B40F01D
:10597000AF823B685B68042B1CD87B681B68196B83
:105980003B685A6813465B0013445B001A461F23AA
:105990009340DB4319403B6818683B685A681346DC
:1059A0005B0013445B0000FA03F27B681B680A4348
:1059B0001A6363E03B685B68092B1ED87B681B6831
:1059C000596B3B685A6813465B0013445B001E3BEF
:1059D0001F2202FA03F3DB4319403B6818683B6857
:1059E0005A6813465B0013445B001E3B00FA03F247
:1059F0007B681B680A435A6340E03B685B680E2B78
:105A00001ED87B681B68996B3B685A6813465B001D
:105A100013445B003C3B1F2202FA03F3DB431940B3
:105A20003B6818683B685A6813465B0013445B0088
:105A30003C3B00FA03F27B681B680A439A631DE053
:105A40007B681B68D96B3B685A6813465B0013443C
:105A50005B005A3B1F2202FA03F3DB4319403B6809
:105A600018683B685A6813465B0013445B005A3B56
:105A700000FA03F27B681B680A43DA637B681B68E1
:105A80009B6803F00C03002B40F0E5803B681B682B
:105A9000092B1CD97B681B6899693B681A681346F7
:105AA0005B0013441E3B072202FA03F3DB43194059
:105AB0003B6898683B681A6813465B0013441E3BBA
:105AC00000FA03F27B681B680A439A6119E07B685D
:105AD0001B6859693B681A6813465B001344072228
